{
  "_format": "hh-sol-artifact-1",
  "contractName": "EvidenceRegistry",
  "sourceName": "contracts/EvidenceRegistry.sol",
  "abi": [
    {
      "anonymous": false,
      "inputs": [
        {
          "indexed": true,
          "internalType": "string",
          "name": "evidenceId",
          "type": "string"
        },
        {
          "indexed": true,
          "internalType": "string",
          "name": "caseId",
          "type": "string"
        },
        {
          "indexed": false,
          "internalType": "string",
          "name": "fileHash",
          "type": "string"
        },
        {
          "indexed": true,
          "internalType": "address",
          "name": "uploader",
          "type": "address"
        }
      ],
      "name": "EvidenceAnchored",
      "type": "event"
    },
    {
      "inputs": [
        {
          "internalType": "string",
          "name": "_evidenceId",
          "type": "string"
        },
        {
          "internalType": "string",
          "name": "_fileHash",
          "type": "string"
        },
        {
          "internalType": "string",
          "name": "_fileType",
          "type": "string"
        },
        {
          "internalType": "string",
          "name": "_caseId",
          "type": "string"
        },
        {
          "internalType": "string",
          "name": "_uploaderRole",
          "type": "string"
        },
        {
          "internalType": "string",
          "name": "_previousHash",
          "type": "string"
        }
      ],
      "name": "anchorEvidence",
      "outputs": [],
      "stateMutability": "nonpayable",
      "type": "function"
    },
    {
      "inputs": [
        {
          "internalType": "uint256",
          "name": "",
          "type": "uint256"
        }
      ],
      "name": "evidenceIds",
      "outputs": [
        {
          "internalType": "string",
          "name": "",
          "type": "string"
        }
      ],
      "stateMutability": "view",
      "type": "function"
    },
    {
      "inputs": [
        {
          "internalType": "string",
          "name": "",
          "type": "string"
        }
      ],
      "name": "evidences",
      "outputs": [
        {
          "internalType": "string",
          "name": "evidenceId",
          "type": "string"
        },
        {
          "internalType": "string",
          "name": "fileHash",
          "type": "string"
        },
        {
          "internalType": "string",
          "name": "fileType",
          "type": "string"
        },
        {
          "internalType": "string",
          "name": "caseId",
          "type": "string"
        },
        {
          "internalType": "string",
          "name": "uploaderRole",
          "type": "string"
        },
        {
          "internalType": "uint256",
          "name": "timestamp",
          "type": "uint256"
        },
        {
          "internalType": "string",
          "name": "previousHash",
          "type": "string"
        },
        {
          "internalType": "address",
          "name": "uploaderAddress",
          "type": "address"
        }
      ],
      "stateMutability": "view",
      "type": "function"
    },
    {
      "inputs": [
        {
          "internalType": "string",
          "name": "_evidenceId",
          "type": "string"
        }
      ],
      "name": "getEvidence",
      "outputs": [
        {
          "components": [
            {
              "internalType": "string",
              "name": "evidenceId",
              "type": "string"
            },
            {
              "internalType": "string",
              "name": "fileHash",
              "type": "string"
            },
            {
              "internalType": "string",
              "name": "fileType",
              "type": "string"
            },
            {
              "internalType": "string",
              "name": "caseId",
              "type": "string"
            },
            {
              "internalType": "string",
              "name": "uploaderRole",
              "type": "string"
            },
            {
              "internalType": "uint256",
              "name": "timestamp",
              "type": "uint256"
            },
            {
              "internalType": "string",
              "name": "previousHash",
              "type": "string"
            },
            {
              "internalType": "address",
              "name": "uploaderAddress",
              "type": "address"
            }
          ],
          "internalType": "struct EvidenceRegistry.Evidence",
          "name": "",
          "type": "tuple"
        }
      ],
      "stateMutability": "view",
      "type": "function"
    },
    {
      "inputs": [
        {
          "internalType": "string",
          "name": "_evidenceId",
          "type": "string"
        },
        {
          "internalType": "string",
          "name": "_computedHash",
          "type": "string"
        }
      ],
      "name": "verifyHash",
      "outputs": [
        {
          "internalType": "bool",
          "name": "",
          "type": "bool"
        }
      ],
      "stateMutability": "view",
      "type": "function"
    }
  ],
  "bytecode": "0x608060405234801561001057600080fd5b5061186e806100206000396000f3fe608060405234801561001057600080fd5b50600436106100575760003560e01c8063258b85d41461005c57806346ce82ee1461008c5780634dd63030146100a8578063b16c6ee7146100df578063eedaaa401461010f575b600080fd5b61007660048036038101906100719190610e7c565b61013f565b6040516100839190610f0f565b60405180910390f35b6100a660048036038101906100a19190610f2a565b6101f6565b005b6100c260048036038101906100bd919061105f565b610468565b6040516100d6989796959493929190611181565b60405180910390f35b6100f960048036038101906100f4919061105f565b610816565b6040516101069190611364565b60405180910390f35b610129600480360381019061012491906113b2565b610c1b565b60405161013691906113df565b60405180910390f35b600080600084604051610152919061143d565b9081526020016040518091039020600001805461016e90611483565b90500361017e57600090506101f0565b8160405160200161018f919061143d565b604051602081830303815290604052805190602001206000846040516101b5919061143d565b90815260200160405180910390206001016040516020016101d6919061154c565b604051602081830303815290604052805190602001201490505b92915050565b60008087604051610207919061143d565b9081526020016040518091039020600001805461022390611483565b905014610265576040517f08c379a000000000000000000000000000000000000000000000000000000000815260040161025c906115af565b60405180910390fd5b60006040518061010001604052808881526020018781526020018681526020018581526020018481526020014281526020018381526020013373ffffffffffffffffffffffffffffffffffffffff168152509050806000886040516102ca919061143d565b908152602001604051809103902060008201518160000190816102ed9190611766565b5060208201518160010190816103039190611766565b5060408201518160020190816103199190611766565b50606082015181600301908161032f9190611766565b5060808201518160040190816103459190611766565b5060a0820151816005015560c08201518160060190816103659190611766565b5060e08201518160070160006101000a81548173ffffffffffffffffffffffffffffffffffffffff021916908373ffffffffffffffffffffffffffffffffffffffff1602179055509050506001879080600181540180825580915050600190039060005260206000200160009091909190915090816103e49190611766565b503373ffffffffffffffffffffffffffffffffffffffff168460405161040a919061143d565b604051809103902088604051610420919061143d565b60405180910390207f81d14d4eb98af6cec56b98a7bba6c9e7f5a645070bb2a4ff97fe3c749d40446c8960405161045791906113df565b60405180910390a450505050505050565b6000818051602081018201805184825260208301602085012081835280955050505050506000915090508060000180546104a190611483565b80601f01602080910402602001604051908101604052809291908181526020018280546104cd90611483565b801561051a5780601f106104ef5761010080835404028352916020019161051a565b820191906000526020600020905b8154815290600101906020018083116104fd57829003601f168201915b50505050509080600101805461052f90611483565b80601f016020809104026020016040519081016040528092919081815260200182805461055b90611483565b80156105a85780601f1061057d576101008083540402835291602001916105a8565b820191906000526020600020905b81548152906001019060200180831161058b57829003601f168201915b5050505050908060020180546105bd90611483565b80601f01602080910402602001604051908101604052809291908181526020018280546105e990611483565b80156106365780601f1061060b57610100808354040283529160200191610636565b820191906000526020600020905b81548152906001019060200180831161061957829003601f168201915b50505050509080600301805461064b90611483565b80601f016020809104026020016040519081016040528092919081815260200182805461067790611483565b80156106c45780601f10610699576101008083540402835291602001916106c4565b820191906000526020600020905b8154815290600101906020018083116106a757829003601f168201915b5050505050908060040180546106d990611483565b80601f016020809104026020016040519081016040528092919081815260200182805461070590611483565b80156107525780601f1061072757610100808354040283529160200191610752565b820191906000526020600020905b81548152906001019060200180831161073557829003601f168201915b50505050509080600501549080600601805461076d90611483565b80601f016020809104026020016040519081016040528092919081815260200182805461079990611483565b80156107e65780601f106107bb576101008083540402835291602001916107e6565b820191906000526020600020905b8154815290600101906020018083116107c957829003601f168201915b5050505050908060070160009054906101000a900473ffffffffffffffffffffffffffffffffffffffff16905088565b61081e610cc7565b60008260405161082e919061143d565b90815260200160405180910390206040518061010001604052908160008201805461085890611483565b80601f016020809104026020016040519081016040528092919081815260200182805461088490611483565b80156108d15780601f106108a6576101008083540402835291602001916108d1565b820191906000526020600020905b8154815290600101906020018083116108b457829003601f168201915b505050505081526020016001820180546108ea90611483565b80601f016020809104026020016040519081016040528092919081815260200182805461091690611483565b80156109635780601f1061093857610100808354040283529160200191610963565b820191906000526020600020905b81548152906001019060200180831161094657829003601f168201915b5050505050815260200160028201805461097c90611483565b80601f01602080910402602001604051908101604052809291908181526020018280546109a890611483565b80156109f55780601f106109ca576101008083540402835291602001916109f5565b820191906000526020600020905b8154815290600101906020018083116109d857829003601f168201915b50505050508152602001600382018054610a0e90611483565b80601f0160208091040260200160405190810160405280929190818152602001828054610a3a90611483565b8015610a875780601f10610a5c57610100808354040283529160200191610a87565b820191906000526020600020905b815481529060010190602001808311610a6a57829003601f168201915b50505050508152602001600482018054610aa090611483565b80601f0160208091040260200160405190810160405280929190818152602001828054610acc90611483565b8015610b195780601f10610aee57610100808354040283529160200191610b19565b820191906000526020600020905b815481529060010190602001808311610afc57829003601f168201915b5050505050815260200160058201548152602001600682018054610b3c90611483565b80601f0160208091040260200160405190810160405280929190818152602001828054610b6890611483565b8015610bb55780601f10610b8a57610100808354040283529160200191610bb5565b820191906000526020600020905b815481529060010190602001808311610b9857829003601f168201915b505050505081526020016007820160009054906101000a900473ffffffffffffffffffffffffffffffffffffffff1673ffffffffffffffffffffffffffffffffffffffff1673ffffffffffffffffffffffffffffffffffffffff16815250509050919050565b60018181548110610c2b57600080fd5b906000526020600020016000915090508054610c4690611483565b80601f0160208091040260200160405190810160405280929190818152602001828054610c7290611483565b8015610cbf5780601f10610c9457610100808354040283529160200191610cbf565b820191906000526020600020905b815481529060010190602001808311610ca257829003601f168201915b505050505081565b60405180610100016040528060608152602001606081526020016060815260200160608152602001606081526020016000815260200160608152602001600073ffffffffffffffffffffffffffffffffffffffff1681525090565b6000604051905090565b600080fd5b600080fd5b600080fd5b600080fd5b6000601f19601f8301169050919050565b7f4e487b7100000000000000000000000000000000000000000000000000000000600052604160045260246000fd5b610d8982610d40565b810181811067ffffffffffffffff82111715610da857610da7610d51565b5b80604052505050565b6000610dbb610d22565b9050610dc78282610d80565b919050565b600067ffffffffffffffff821115610de757610de6610d51565b5b610df082610d40565b9050602081019050919050565b82818337600083830152505050565b6000610e1f610e1a84610dcc565b610db1565b905082815260208101848484011115610e3b57610e3a610d3b565b5b610e46848285610dfd565b509392505050565b600082601f830112610e6357610e62610d36565b5b8135610e73848260208601610e0c565b91505092915050565b60008060408385031215610e9357610e92610d2c565b5b600083013567ffffffffffffffff811115610eb157610eb0610d31565b5b610ebd85828601610e4e565b925050602083013567ffffffffffffffff811115610ede57610edd610d31565b5b610eea85828601610e4e565b9150509250929050565b60008115159050919050565b610f0981610ef4565b82525050565b6000602082019050610f246000830184610f00565b92915050565b60008060008060008060c08789031215610f4757610f46610d2c565b5b600087013567ffffffffffffffff811115610f6557610f64610d31565b5b610f7189828a01610e4e565b965050602087013567ffffffffffffffff811115610f9257610f91610d31565b5b610f9e89828a01610e4e565b955050604087013567ffffffffffffffff811115610fbf57610fbe610d31565b5b610fcb89828a01610e4e565b945050606087013567ffffffffffffffff811115610fec57610feb610d31565b5b610ff889828a01610e4e565b935050608087013567ffffffffffffffff81111561101957611018610d31565b5b61102589828a01610e4e565b92505060a087013567ffffffffffffffff81111561104657611045610d31565b5b61105289828a01610e4e565b9150509295509295509295565b60006020828403121561107557611074610d2c565b5b600082013567ffffffffffffffff81111561109357611092610d31565b5b61109f84828501610e4e565b91505092915050565b600081519050919050565b600082825260208201905092915050565b60005b838110156110e25780820151818401526020810190506110c7565b60008484015250505050565b60006110f9826110a8565b61110381856110b3565b93506111138185602086016110c4565b61111c81610d40565b840191505092915050565b6000819050919050565b61113a81611127565b82525050565b600073ffffffffffffffffffffffffffffffffffffffff82169050919050565b600061116b82611140565b9050919050565b61117b81611160565b82525050565b600061010082019050818103600083015261119c818b6110ee565b905081810360208301526111b0818a6110ee565b905081810360408301526111c481896110ee565b905081810360608301526111d881886110ee565b905081810360808301526111ec81876110ee565b90506111fb60a0830186611131565b81810360c083015261120d81856110ee565b905061121c60e0830184611172565b9998505050505050505050565b600082825260208201905092915050565b6000611245826110a8565b61124f8185611229565b935061125f8185602086016110c4565b61126881610d40565b840191505092915050565b61127c81611127565b82525050565b61128b81611160565b82525050565b60006101008301600083015184820360008601526112af828261123a565b915050602083015184820360208601526112c9828261123a565b915050604083015184820360408601526112e3828261123a565b915050606083015184820360608601526112fd828261123a565b91505060808301518482036080860152611317828261123a565b91505060a083015161132c60a0860182611273565b5060c083015184820360c0860152611344828261123a565b91505060e083015161135960e0860182611282565b508091505092915050565b6000602082019050818103600083015261137e8184611291565b905092915050565b61138f81611127565b811461139a57600080fd5b50565b6000813590506113ac81611386565b92915050565b6000602082840312156113c8576113c7610d2c565b5b60006113d68482850161139d565b91505092915050565b600060208201905081810360008301526113f981846110ee565b905092915050565b600081905092915050565b6000611417826110a8565b6114218185611401565b93506114318185602086016110c4565b80840191505092915050565b6000611449828461140c565b915081905092915050565b7f4e487b7100000000000000000000000000000000000000000000000000000000600052602260045260246000fd5b6000600282049050600182168061149b57607f821691505b6020821081036114ae576114ad611454565b5b50919050565b60008190508160005260206000209050919050565b600081546114d681611483565b6114e08186611401565b945060018216600081146114fb576001811461151057611543565b60ff1983168652811515820286019350611543565b611519856114b4565b60005b8381101561153b5781548189015260018201915060208101905061151c565b838801955050505b50505092915050565b600061155882846114c9565b915081905092915050565b7f45766964656e636520616c726561647920657869737473000000000000000000600082015250565b60006115996017836110b3565b91506115a482611563565b602082019050919050565b600060208201905081810360008301526115c88161158c565b9050919050565b60006020601f8301049050919050565b600082821b905092915050565b60006008830261161c7fffffffffffffffffffffffffffffffffffffffffffffffffffffffffffffffff826115df565b61162686836115df565b95508019841693508086168417925050509392505050565b6000819050919050565b600061166361165e61165984611127565b61163e565b611127565b9050919050565b6000819050919050565b61167d83611648565b6116916116898261166a565b8484546115ec565b825550505050565b600090565b6116a6611699565b6116b1818484611674565b505050565b5b818110156116d5576116ca60008261169e565b6001810190506116b7565b5050565b601f82111561171a576116eb816114b4565b6116f4846115cf565b81016020851015611703578190505b61171761170f856115cf565b8301826116b6565b50505b505050565b600082821c905092915050565b600061173d6000198460080261171f565b1980831691505092915050565b6000611756838361172c565b9150826002028217905092915050565b61176f826110a8565b67ffffffffffffffff81111561178857611787610d51565b5b6117928254611483565b61179d8282856116d9565b600060209050601f8311600181146117d057600084156117be578287015190505b6117c8858261174a565b865550611830565b601f1984166117de866114b4565b60005b82811015611806578489015182556001820191506020850194506020810190506117e1565b86831015611823578489015161181f601f89168261172c565b8355505b6001600288020188555050505b50505050505056fea26469706673582212207a99ff10ab7b75864193476affc7a97b6b4c4d0cb588104d782917ea79b41df264736f6c63430008130033",
  "linkReferences": {},
  "deployedLinkReferences": {}
}